:020000040800F2
:1000000000280020DD0800082D070008330700083D
:10001000390700083F0700084507000800000000F6
:100020000000000000000000000000004B07000876
:100030005707000800000000630700086F0700086A
:1000400025090008250900082509000825090008D8
:1000500025090008250900082509000825090008C8
:1000600025090008250900082509000825090008B8
:1000700025090008250900082509000825090008A8
:100080002509000825090008250900082509000898
:100090002509000825090008250900082509000888
:1000A0002509000825090008250900082509000878
:1000B0007D07000825090008000000002509000848
:1000C00025090008000000000000000025090008C4
:1000D00000000000250900082509000800000000B4
:1000E000250900082509000825090008000000006E
:1000F0000000000000000000000000000000000000
:0C01000000000000000000005FF808F1A3
:10010C0010B5054C237833B9044B13B10448AFF345
:10011C0000800123237010BD680000200000000047
:10012C00702D000808B5034B1BB103490348AFF30E
:10013C00008008BD000000006C000020702D00083D
:10014C0080B500AF0821024800F0ECFE00BF80BD76
:10015C000008014080B500AF1021024800F0E2FE1B
:10016C0000BF80BD0008014080B500AF20210248CF
:10017C0000F0D8FE00BF80BD0008014080B582B001
:10018C0000AF00237B607968034801F06DFF00BF6E
:10019C000837BD4680BD00BF882D000880B500AF74
:1001AC0000F0BCFB00F030F800F0B6F800F068F896
:1001BC00104801F0FFFA0A2200210F4800F0EEF877
:1001CC00C82296210D4800F0E9F864224FF4FA7128
:1001DC000B4800F0E3F8FA2264210A4800F0DEF83C
:1001EC004FF4FA720021044800F0D8F800F0FCF942
:1001FC00FCE700BF84000020890100084D010008C5
:10020C00610100087501000880B590B000AF07F1DE
:10021C00180328220021184601F07BFF3B1D002209
:10022C001A605A609A60DA601A610223BB6101237A
:10023C00BB621023FB6200237B6307F11803184693
:10024C0000F08AFE0346002B01D000F0A1F80F232A
:10025C007B600023BB600023FB6000233B61002319
:10026C007B613B1D0021184601F0F8F80346002B7A
:10027C0001D000F08DF800BF4037BD4680BD0000B6
:10028C0080B586B000AF07F1080300221A605A60EF
:10029C009A60DA603B4600221A605A601D4B4FF0A0
:1002AC0080421A601B4B41F63F725A60194B002278
:1002BC009A60184B0922DA60164B00221A61154B12
:1002CC0000229A61134801F025FA0346002B01D055
:1002DC0000F05EF84FF48053BB6007F10803194639
:1002EC000C4801F0BBFB0346002B01D000F050F88A
:1002FC0000233B6000237B603B461946054801F018
:10030C0087FD0346002B01D000F042F800BF1837E0
:10031C00BD4680BD8400002080B586B000AF07F1DB
:10032C00080300221A605A609A60DA60114B9B69CC
:10033C00104A43F0040393610E4B9B6903F00403D2
:10034C007B607B68002278210B4800F0D3FD78237A
:10035C00BB600123FB6000233B6102237B6107F13F
:10036C0008031946044800F049FC00BF1837BD4685
:10037C0080BD00BF001002400008014080B582B073
:10038C0000AF786000F060F800BF0837BD4680BD54
:10039C0080B400AF72B600BFFEE7000080B485B039
:1003AC0000AFF860B9607A60254B1B78272B42D8D8
:1003BC00234B1B781946234A0B469B000B449B008E
:1003CC001344FA681A601E4B1B7819461D4A0B46DB
:1003DC009B000B449B0013440433BA681A60184BFF
:1003EC001B781946174A0B469B000B449B00134481
:1003FC0008337A681A60124B1B781946114A0B465F
:10040C009B000B449B0013440C3300221A700C4BC2
:10041C001A780B4B1B78194610460A4A0B469B0060
:10042C000B449B00134410331860054B1B780133AD
:10043C00DAB2034B1A7000BF1437BD4680BC70474C
:10044C00EC030020CC00002080B483B000AF00236C
:10045C007B6053E02F497A6813469B0013449B0042
:10046C000B4404331B68002B13D02A497A681346BB
:10047C009B0013449B000B4404331B68591E2548F6
:10048C007A6813469B0013449B00034404331960A1
:10049C0031E020497A6813469B0013449B000B44BF
:1004AC000C331B780133D8B21A497A6813469B0077
:1004BC0013449B000B440C3302461A7015497A689E
:1004CC0013469B0013449B000B4408331B68002B02
:1004DC0011D010497A6813469B0013449B000B44BF
:1004EC00083319680B487A6813469B0013449B0029
:1004FC000344043319607B6801337B60064B1B7823
:10050C001A467B689342A5DB00BF00BF0C37BD4683
:10051C0080BC7047CC000020EC030020B0B485B048
:10052C0000AF78607B68272B55D82D497A68134625
:10053C009B0013449B000B441B68002B4BD07B6827
:10054C00FB6017E0FB685A1C2548F9680B469B00BA
:10055C000B449B001844224913469B0013449B00F8
:10056C000B4404461D460FCD0FC42B682360FB685B
:10057C000133FB60FB68262BE4D919497A681346D2
:10058C009B0013449B000B4400221A6014497A68A8
:10059C0013469B0013449B000B44043300221A6047
:1005AC000F497A6813469B0013449B000B44083395
:1005BC0000221A600A497A6813469B0013449B0078
:1005CC000B440C3300221A70064B1B78013BDAB239
:1005DC00044B1A7000E000BF1437BD46B0BC704726
:1005EC00CC000020EC03002080B582B000AF0023CB
:1005FC007B602FE01D497A6813469B0013449B00D7
:10060C000B441B68002B22D018497A6813469B00B8
:10061C0013449B000B440C331B78002B08D013495C
:10062C007A6813469B0013449B000B441B68984745
:10063C000E497A6813469B0013449B000B44083305
:10064C001B68002B03D17B681846FFF767FF7B689C
:10065C0001337B60064B1B781A467B689342C9DBDF
:10066C0000BF00BF0837BD4680BD00BFCC000020D6
:10067C00EC03002080B485B000AF154B9B69144A85
:10068C0043F001039361124B9B6903F00103BB60C0
:10069C00BB680F4BDB690E4A43F08053D3610C4BA4
:1006AC00DB6903F080537B607B680A4B5B68FB6003
:1006BC00FB6823F0E063FB60FB6843F00073FB60B6
:1006CC00044AFB68536000BF1437BD4680BC7047BA
:1006DC00001002400000014080B584B000AF78608B
:1006EC007B681B68B3F1804F13D10C4BDB690B4A51
:1006FC0043F00103D361094BDB6903F00103FB6099
:10070C00FB6800220F211C2000F041FA1C2000F095
:10071C005AFA00BF1037BD4680BD00BF0010024022
:10072C0080B400AFFEE780B400AFFEE780B400AF4A
:10073C00FEE780B400AFFEE780B400AFFEE780B404
:10074C0000AF00BFBD4680BC704780B400AF00BF97
:10075C00BD4680BC704780B400AF00BFBD4680BCB6
:10076C00704780B500AF00F01FF900BF80BD0000DE
:10077C0080B500AF024801F069F800BF80BD00BF32
:10078C008400002080B586B000AFF860B9607A6054
:10079C0000237B610AE0AFF300800146BB685A1C62
:1007AC00BA60CAB21A707B6901337B617A697B6863
:1007BC009A42F0DB7B6818461837BD4680BD80B581
:1007CC0086B000AFF860B9607A6000237B6109E005
:1007DC00BB685A1CBA601B781846AFF300807B6963
:1007EC0001337B617A697B689A42F1DB7B6818463E
:1007FC001837BD4680BD80B483B000AF78604FF031
:10080C00FF3318460C37BD4680BC704780B483B0AC
:10081C0000AF786039603B684FF400525A60002397
:10082C0018460C37BD4680BC704780B483B000AF0F
:10083C007860012318460C37BD4680BC704780B4E5
:10084C0085B000AFF860B9607A60002318461437A1
:10085C00BD4680BC7047000080B586B000AF7860A4
:10086C00144A154BD31A7B617B693B61134B1B6894
:10087C00002B02D1114B124A1A60104B1A687B687C
:10088C0013443A699A4207D201F092FC03460C22B7
:10089C001A604FF0FF3309E0084B1B68FB60074BF5
:1008AC001A687B681344054A1360FB6818461837AE
:1008BC00BD4680BD0028002000040000F00300208D
:1008CC004805002080B400AF00BFBD4680BC704717
:1008DC00FFF7F8FF0B480C490C4A002302E0D458F0
:1008EC00C4500433C4188C42F9D3094A094C002370
:1008FC0001E013600432A242FBD301F05FFCFFF76E
:10090C004DFC70470000002068000020FC2D000802
:10091C006800002044050020FEE7000080B500AF11
:10092C00084B1B68074A43F010031360032000F0C8
:10093C0023F90F2000F008F8FFF79CFE002318465F
:10094C0080BD00BF0020024080B582B000AF78604F
:10095C00124B1A68124B1B7819464FF47A73B3FB7F
:10096C00F1F3B2FBF3F3184600F03BF90346002B0E
:10097C0001D001230EE07B680F2B0AD80022796886
:10098C004FF0FF3000F003F9064A7B681360002338
:10099C0000E0012318460837BD4680BD000000204A
:1009AC00080000200400002080B400AF054B1B7829
:1009BC001A46054B1B681344034A136000BFBD461F
:1009CC0080BC704708000020F403002080B400AF06
:1009DC00024B1B681846BD4680BC7047F4030020D0
:1009EC0080B485B000AF78607B6803F00703FB60D0
:1009FC000C4BDB68BB60BA684FF6FF031340BB605F
:100A0C00FB681A02BB68134343F0BF6343F4003323
:100A1C00BB60044ABB68D36000BF1437BD4680BCC2
:100A2C00704700BF00ED00E080B400AF044BDB6802
:100A3C001B0A03F007031846BD4680BC704700BF75
:100A4C0000ED00E080B483B000AF0346FB7197F972
:100A5C000730002B0BDBFB7903F01F02064997F9DB
:100A6C0007305B09012000FA02F241F8232000BF95
:100A7C000C37BD4680BC704700E100E080B483B009
:100A8C0000AF03463960FB7197F90730002B0ADB86
:100A9C003B68DAB20C4997F907301201D2B20B4419
:100AAC0083F800230AE03B68DAB20849FB7903F0CB
:100ABC000F03043B1201D2B20B441A7600BF0C3761
:100ACC00BD4680BC704700BF00E100E000ED00E0D7
:100ADC0080B489B000AFF860B9607A60FB6803F04D
:100AEC000703FB61FB69C3F10703042B28BF042335
:100AFC00BB61FB690433062B02D9FB69033B00E0A5
:100B0C0000237B614FF0FF32BB6902FA03F3DA4337
:100B1C00BB681A407B699A404FF0FF317B6901FA40
:100B2C0003F3D9437B680B40134318462437BD4667
:100B3C0080BC704780B582B000AF78607B68013BA9
:100B4C00B3F1807F01D301230FE00A4A7B68013B9C
:100B5C0053600F214FF0FF30FFF790FF054B002241
:100B6C009A60044B07221A60002318460837BD46CA
:100B7C0080BD00BF10E000E080B582B000AF7860AF
:100B8C007868FFF72DFF00BF0837BD4680BD80B5E4
:100B9C0086B000AF0346B9607A60FB7300237B61BB
:100BAC00FFF742FF78617A68B9687869FFF790FFC0
:100BBC00024697F90F3011461846FFF75FFF00BF4A
:100BCC001837BD4680BD80B582B000AF0346FB71BF
:100BDC0097F907301846FFF735FF00BF0837BD46B9
:100BEC0080BD80B582B000AF78607868FFF7A2FF57
:100BFC00034618460837BD4680BD000080B48BB054
:100C0C0000AF7860396000237B6200233B6261E1B6
:100C1C0001227B6A02FA03F3FB613B681B68FA69E9
:100C2C001340BB61BA69FB699A4240F050813B6842
:100C3C005B68974A93425ED0954A934275D8954A21
:100C4C00934258D0934A93426FD8934A934252D0CE
:100C5C00914A934269D8914A93424CD08F4A93421D
:100C6C0063D88F4A934246D08D4A93425DD8122B5B
:100C7C002AD8122B59D801A252F823F0030D0008E0
:100C8C00DD0C0008EF0C0008310D0008370D0008D2
:100C9C00370D0008370D0008370D0008370D000818
:100CAC00370D0008370D0008370D0008370D000808
:100CBC00370D0008370D0008370D0008370D0008F8
:100CCC00E50C0008F90C0008764A934213D02CE08E
:100CDC003B68DB683B6229E03B68DB6804333B62C2
:100CEC0024E03B68DB6808333B621FE03B68DB6851
:100CFC000C333B621AE03B689B68002B02D1042347
:100D0C003B6213E03B689B68012B05D108233B62D7
:100D1C007B68FA691A6109E008233B627B68FA690F
:100D2C005A6103E000233B6200E000BFBB69FF2B6C
:100D3C0001D87B6801E07B6804337B61BB69FF2BC6
:100D4C0002D87B6A9B0002E07B6A083B9B003B61FC
:100D5C007B691A680F213B6901FA03F3DB431A40E4
:100D6C00396A3B6901FA03F31A437B691A603B68E1
:100D7C005B6803F08053002B00F0A9804A4B9B6901
:100D8C00494A43F001039361474B9B6903F001030C
:100D9C00BB60BB68454A7B6A9B08023352F8233020
:100DAC00FB607B6A03F003039B000F2202FA03F340
:100DBC00DB43FA681340FB607B683D4A93420DD0DD
:100DCC007B683C4A934207D07B683B4A934201D1F3
:100DDC00022304E0032302E0012300E000237A6AEB
:100DEC0002F0030292009340FA681343FB602F4910
:100DFC007B6A9B080233FA6841F823203B685B68E6
:100E0C0003F48013002B06D02C4B9A682B49BB693A
:100E1C0013438B6006E0294B9A68BB69DB43274977
:100E2C0013408B603B685B6803F40013002B06D007
:100E3C00224BDA682149BB691343CB6006E01F4B98
:100E4C00DA68BB69DB431D491340CB603B685B68C8
:100E5C0003F40033002B06D0184B5A681749BB69B2
:100E6C0013434B6006E0154B5A68BB69DB431349CF
:100E7C0013404B603B685B6803F48033002B1FD03E
:100E8C000E4B1A680D49BB6913430B601FE000BF82
:100E9C000000321000003110000022100000211060
:100EAC000000121000001110001002400000014060
:100EBC0000080140000C01400010014000040140FA
:100ECC000B4B1A68BB69DB43094913400B607B6A07
:100EDC0001337B623B681A687B6A22FA03F3002BAE
:100EEC007FF496AE00BF00BF2C37BD4680BC704768
:100EFC000004014080B483B000AF78600B467B8067
:100F0C0013467B707B78002B03D07A887B681A6140
:100F1C0003E07B881A047B681A6100BF0C37BD465E
:100F2C0080BC704780B485B000AF78600B467B8086
:100F3C007B68DB68FB607A88FB6813401A04FB68EB
:100F4C00D9437B880B401A437B681A6100BF143766
:100F5C00BD4680BC7047000080B586B000AF78609D
:100F6C007B68002B01D1012372E27B681B6803F0C4
:100F7C000103002B00F08780924B5B6803F00C039D
:100F8C00042B0CD08F4B5B6803F00C03082B12D195
:100F9C008C4B5B6803F48033B3F5803F0BD1894BEA
:100FAC001B6803F40033002B6CD07B685B68002B50
:100FBC0068D101234CE27B685B68B3F5803F06D1B6
:100FCC00804B1B687F4A43F4803313602EE07B68B0
:100FDC005B68002B0CD17B4B1B687A4A23F4803363
:100FEC001360784B1B68774A23F4802313601DE051
:100FFC007B685B68B3F5A02F0CD1724B1B68714AF0
:10100C0043F4802313606F4B1B686E4A43F48033A8
:10101C0013600BE06B4B1B686A4A23F4803313603C
:10102C00684B1B68674A23F4802313607B685B68FA
:10103C00002B13D0FFF7CAFC386108E0FFF7C6FCA1
:10104C0002463B69D31A642B01D9032300E25D4BA2
:10105C001B6803F40033002BF0D014E0FFF7B6FC50
:10106C00386108E0FFF7B2FC02463B69D31A642BE7
:10107C0001D90323ECE1534B1B6803F40033002B21
:10108C00F0D100E000BF7B681B6803F00203002B6B
:10109C0063D04C4B5B6803F00C03002B0BD0494B1B
:1010AC005B6803F00C03082B1CD1464B5B6803F404
:1010BC008033002B16D1434B1B6803F00203002B2B
:1010CC0005D07B681B69012B01D00123C0E13D4B8E
:1010DC001B6823F0F8027B685B69DB00394913431A
:1010EC000B603AE07B681B69002B20D0364B012249
:1010FC001A60FFF76BFC386108E0FFF767FC0246EB
:10110C003B69D31A022B01D90323A1E12D4B1B6898
:10111C0003F00203002BF0D02A4B1B6823F0F802DB
:10112C007B685B69DB00274913430B6015E0264B9A
:10113C0000221A60FFF74AFC386108E0FFF746FC12
:10114C0002463B69D31A022B01D9032380E11D4BC4
:10115C001B6803F00203002BF0D17B681B6803F0C3
:10116C000803002B3AD07B689B69002B19D0174BD6
:10117C0001221A60FFF72AFC386108E0FFF726FC11
:10118C0002463B69D31A022B01D9032360E10D4BB4
:10119C005B6A03F00203002BF0D0012000F09CFAF4
:1011AC001CE00A4B00221A60FFF710FC38610FE0BC
:1011BC00FFF70CFC02463B69D31A022B08D9032318
:1011CC0046E100BF0010024000004242800442424F
:1011DC00924B5B6A03F00203002BE9D17B681B681E
:1011EC0003F00403002B00F0A6800023FB758B4B4F
:1011FC00DB6903F08053002B0DD1884BDB69874AE8
:10120C0043F08053D361854BDB6903F08053BB60A3
:10121C00BB680123FB75824B1B6803F48073002BA6
:10122C0018D17F4B1B687E4A43F480731360FFF721
:10123C00CDFB386108E0FFF7C9FB02463B69D31AC6
:10124C00642B01D9032303E1754B1B6803F48073F2
:10125C00002BF0D07B68DB68012B06D16F4B1B6A2F
:10126C006E4A43F0010313622DE07B68DB68002BB0
:10127C000CD16A4B1B6A694A23F001031362674B5A
:10128C001B6A664A23F0040313621CE07B68DB686C
:10129C00052B0CD1614B1B6A604A43F004031362AB
:1012AC005E4B1B6A5D4A43F0010313620BE05B4B20
:1012BC001B6A5A4A23F001031362584B1B6A574AA4
:1012CC0023F0040313627B68DB68002B15D0FFF757
:1012DC007DFB38610AE0FFF779FB02463B69D31AC4
:1012EC0041F28832934201D90323B1E04B4B1B6A84
:1012FC0003F00203002BEED014E0FFF767FB38611C
:10130C000AE0FFF763FB02463B69D31A41F28832CD
:10131C00934201D903239BE0404B1B6A03F0020369
:10132C00002BEED1FB7D012B05D13C4BDB693B4AFD
:10133C0023F08053D3617B68DB69002B00F087803E
:10134C00364B5B6803F00C03082B61D07B68DB69C0
:10135C00022B46D1334B00221A60FFF737FB386162
:10136C0008E0FFF733FB02463B69D31A022B01D985
:10137C0003236DE0294B1B6803F00073002BF0D1A5
:10138C007B681B6AB3F5803F08D1244B5B6823F460
:10139C0000327B689B68214913434B601F4B5B6891
:1013AC0023F474127B68196A7B685B6A0B431B49D4
:1013BC0013434B601B4B01221A60FFF707FB38618C
:1013CC0008E0FFF703FB02463B69D31A022B01D955
:1013DC0003233DE0114B1B6803F00073002BF0D08E
:1013EC0035E0104B00221A60FFF7F0FA386108E084
:1013FC00FFF7ECFA02463B69D31A022B01D90323FF
:10140C0026E0064B1B6803F00073002BF0D11EE0A6
:10141C007B68DB69012B07D1012319E00010024026
:10142C0000700040600042420B4B5B68FB60FB6845
:10143C0003F480327B681B6A9A4206D1FB6803F482
:10144C0070127B685B6A9A4201D0012300E0002392
:10145C0018461837BD4680BD0010024080B584B0D8
:10146C0000AF786039607B68002B01D10123D0E09C
:10147C006A4B1B6803F007033A689A4210D9674B12
:10148C001B6823F0070265493B6813430B60634BF1
:10149C001B6803F007033A689A4201D00123B8E0B5
:1014AC007B681B6803F00203002B20D07B681B6851
:1014BC0003F00403002B05D0594B5B68584A43F4E6
:1014CC00E06353607B681B6803F00803002B05D0B6
:1014DC00534B5B68524A43F460535360504B5B6808
:1014EC0023F0F0027B689B684D4913434B607B688B
:1014FC001B6803F00103002B40D07B685B68012B59
:10150C0007D1474B1B6803F40033002B15D1012383
:10151C007FE07B685B68022B07D1414B1B6803F0B3
:10152C000073002B09D1012373E03D4B1B6803F0C2
:10153C000203002B01D101236BE0394B5B6823F0D4
:10154C0003027B685B68364913434B60FFF73EFA36
:10155C00F8600AE0FFF73AFA0246FB68D31A41F248
:10156C008832934201D9032353E02D4B5B6803F07F
:10157C000C027B685B689B009A42EBD1274B1B6883
:10158C0003F007033A689A4210D2244B1B6823F0ED
:10159C00070222493B6813430B60204B1B6803F086
:1015AC0007033A689A4201D0012332E07B681B683A
:1015BC0003F00403002B08D0194B5B6823F4E062A2
:1015CC007B68DB68164913434B607B681B6803F030
:1015DC000803002B09D0124B5B6823F460527B6824
:1015EC001B69DB000E4913434B6000F021F80246E7
:1015FC000B4B5B681B0903F00F030A49CB5C22FA07
:10160C0003F3094A1360094B1B681846FFF79CF952
:10161C00002318461037BD4680BD00BF0020024095
:10162C00001002409C2D0008000000200400002047
:10163C0080B487B000AF0023FB600023BB600023A5
:10164C007B6100237B6000233B611E4B5B68FB606E
:10165C00FB6803F00C03042B02D0082B03D027E00B
:10166C00194B3B6127E0FB689B0C03F00F03174AF7
:10167C00D35C7B60FB6803F48033002B10D0114BE0
:10168C005B685B0C03F00103114AD35CBB607B68A5
:10169C000D4A03FB02F2BB68B2FBF3F37B6104E07F
:1016AC007B680C4A02FB03F37B617B693B6102E0C4
:1016BC00054B3B6100BF3B6918461C37BD4680BCDF
:1016CC00704700BF0010024000127A00AC2D0008D9
:1016DC00BC2D000800093D0080B485B000AF7860D7
:1016EC000A4B1B680A4AA2FB03235B0A7A6802FBBB
:1016FC0003F3FB6000BFFB685A1EFA60002BF9D1A4
:10170C0000BF00BF1437BD4680BC704700000020EE
:10171C00D34D621080B582B000AF78607B68002B2F
:10172C0001D1012341E07B6893F83D30DBB2002B03
:10173C0006D17B68002283F83C207868FEF7CCFF4A
:10174C007B68022283F83D207B681A687B6804332F
:10175C001946104600F06EFA7B68012283F8462089
:10176C007B68012283F83E207B68012283F83F20AE
:10177C007B68012283F840207B68012283F841209A
:10178C007B68012283F842207B68012283F8432086
:10179C007B68012283F844207B68012283F8452072
:1017AC007B68012283F83D20002318460837BD468C
:1017BC0080BD000080B485B000AF78607B6893F882
:1017CC003D30DBB2012B01D0012335E07B680222D6
:1017DC0083F83D207B681B68DA687B681B6842F0E5
:1017EC000102DA607B681B68164A934209D07B6859
:1017FC001B68B3F1804F04D07B681B68124A93427C
:10180C0011D17B681B689B6803F00703FB60FB68C6
:10181C00062B10D07B681B681A687B681B6842F02B
:10182C0001021A6007E07B681B681A687B681B68FA
:10183C0042F001021A60002318461437BD4680BCE2
:10184C00704700BF002C01400004004080B582B0FE
:10185C0000AF78607B681B681B6903F00203022BE6
:10186C0022D17B681B68DB6803F00203022B1BD1BF
:10187C007B681B686FF002021A617B6801221A7781
:10188C007B681B689B6903F00303002B03D078680B
:10189C0000F0B4F905E0786800F0A7F9786800F07A
:1018AC00B6F97B6800221A777B681B681B6903F00A
:1018BC000403042B22D17B681B68DB6803F0040350
:1018CC00042B1BD17B681B686FF004021A617B68C8
:1018DC0002221A777B681B689B6903F44073002B08
:1018EC0003D0786800F08AF905E0786800F07DF99B
:1018FC00786800F08CF97B6800221A777B681B688B
:10190C001B6903F00803082B22D17B681B68DB687A
:10191C0003F00803082B1BD17B681B686FF00802CF
:10192C001A617B6804221A777B681B68DB6903F0F9
:10193C000303002B03D0786800F060F905E07868A9
:10194C0000F053F9786800F062F97B6800221A778E
:10195C007B681B681B6903F01003102B22D17B687A
:10196C001B68DB6803F01003102B1BD17B681B6812
:10197C006FF010021A617B6808221A777B681B686B
:10198C00DB6903F44073002B03D0786800F036F960
:10199C0005E0786800F029F9786800F038F97B6880
:1019AC0000221A777B681B681B6903F00103012B6B
:1019BC000ED17B681B68DB6803F00103012B07D198
:1019CC007B681B686FF001021A617868FEF7D6FC21
:1019DC007B681B681B6903F08003802B0ED17B682E
:1019EC001B68DB6803F08003802B07D17B681B68C6
:1019FC006FF080021A61786800F06BFA7B681B68E4
:101A0C001B6903F04003402B0ED17B681B68DB681D
:101A1C0003F04003402B07D17B681B686FF040023A
:101A2C001A61786800F0FCF87B681B681B6903F08E
:101A3C002003202B0ED17B681B68DB6803F020038E
:101A4C00202B07D17B681B686FF020021A61786825
:101A5C0000F036FA00BF0837BD4680BD80B584B0B3
:101A6C0000AF786039600023FB737B6893F83C30DF
:101A7C00012B01D10223B4E07B68012283F83C20C6
:101A8C007B68022283F83D207B681B689B68BB60E7
:101A9C00BB6823F07703BB60BB6823F47F43BB6058
:101AAC007B681B68BA689A603B681B68B3F5005F7B
:101ABC003ED0B3F5005F00F28780B3F5805F00F095
:101ACC008680B3F5805F7FD8702B1AD0702B7BD8B3
:101ADC00602B50D0602B77D8502B3CD0502B73D828
:101AEC00402B58D0402B6FD8302B64D0302B6BD878
:101AFC00202B60D0202B67D8002B5CD0102B5AD019
:101B0C0062E07B6818683B6899683B685A683B6878
:101B1C00DB6800F05EF97B681B689B68BB60BB6888
:101B2C0043F07703BB607B681B68BA689A604FE030
:101B3C007B6818683B6899683B685A683B68DB6847
:101B4C0000F047F97B681B689A687B681B6842F455
:101B5C0080429A603CE07B6818683B6859683B6837
:101B6C00DB681A4600F0BEF87B681B6850211846EB
:101B7C0000F015F92CE07B6818683B6859683B68E5
:101B8C00DB681A4600F0DCF87B681B68602118469D
:101B9C0000F005F91CE07B6818683B6859683B68E5
:101BAC00DB681A4600F09EF87B681B6840211846DB
:101BBC0000F0F5F80CE07B681A683B681B68194666
:101BCC00104600F0ECF803E00123FB7300E000BFCB
:101BDC007B68012283F83D207B68002283F83C203F
:101BEC00FB7B18461037BD4680BD80B483B000AF78
:101BFC00786000BF0C37BD4680BC704780B483B0A2
:101C0C0000AF786000BF0C37BD4680BC704780B415
:101C1C0083B000AF786000BF0C37BD4680BC704706
:101C2C0080B483B000AF786000BF0C37BD4680BC79
:101C3C007047000080B485B000AF786039607B6875
:101C4C001B68FB607B68254A934207D07B68B3F125
:101C5C00804F03D07B68224A934208D1FB6823F063
:101C6C007003FB603B685B68FA681343FB607B683E
:101C7C001A4A934207D07B68B3F1804F03D07B683C
:101C8C00174A934208D1FB6823F44073FB603B680E
:101C9C00DB68FA681343FB60FB6823F080023B6847
:101CAC005B691343FB607B68FA681A603B689A684F
:101CBC007B68DA623B681A687B689A627B68074AC1
:101CCC00934203D13B681A697B681A637B680122D3
:101CDC005A6100BF1437BD4680BC7047002C0140D0
:101CEC000004004080B487B000AFF860B9607A603F
:101CFC00FB681B6A7B61FB681B6A23F00102FB68B3
:101D0C001A62FB689B693B613B6923F0F0033B6102
:101D1C007B681B013A6913433B617B6923F00A031F
:101D2C007B617A69BB6813437B61FB683A699A6192
:101D3C00FB687A691A6200BF1C37BD4680BC7047CD
:101D4C0080B487B000AFF860B9607A60FB681B6A3A
:101D5C007B61FB681B6A23F01002FB681A62FB684C
:101D6C009B693B613B6923F470433B617B681B03BC
:101D7C003A6913433B617B6923F0A0037B61BB6829
:101D8C001B017A6913437B61FB683A699A61FB68B2
:101D9C007A691A6200BF1C37BD4680BC704780B49C
:101DAC0085B000AF786039607B689B68FB60FB682E
:101DBC0023F07003FB603A68FB68134343F007039E
:101DCC00FB607B68FA689A6000BF1437BD4680BC24
:101DDC00704780B487B000AFF860B9607A603B6040
:101DEC00FB689B687B617B6923F47F437B613B6869
:101DFC001A027B681A43BB6813437A6913437B61ED
:101E0C00FB687A699A6000BF1C37BD4680BC70477E
:101E1C0080B485B000AF786039607B6893F83C3053
:101E2C00012B01D1022341E07B68012283F83C2085
:101E3C007B68022283F83D207B681B685B68FB6033
:101E4C007B681B689B68BB60FB6823F07003FB60BE
:101E5C003B681B68FA681343FB607B681B68FA6875
:101E6C005A607B681B68144A934209D07B681B68D4
:101E7C00B3F1804F04D07B681B68104A93420CD19D
:101E8C00BB6823F08003BB603B685B68BA68134394
:101E9C00BB607B681B68BA689A607B68012283F818
:101EAC003D207B68002283F83C2000231846143721
:101EBC00BD4680BC704700BF002C014000040040B0
:101ECC0080B483B000AF786000BF0C37BD4680BCD7
:101EDC00704780B483B000AF786000BF0C37BD464C
:101EEC0080BC7047002310B50446C0E90033C0E93C
:101EFC000433836081814366C28183611946082261
:101F0C005C3000F006F90D4B246263620C4BA3624B
:101F1C000C4BE3620C4B23630C4B9C4206D003F13D
:101F2C006802944202D0D0339C4205D104F158008F
:101F3C00BDE8104000F066B910BD00BF9920000844
:101F4C00BB200008F320000817210008F80300202C
:101F5C00024A0349034800F069B800BF0C00002096
:101F6C00B12A00081800002041680C4B10B59942AA
:101F7C00044601D000F096FDA168094B994202D0AD
:101F8C00204600F08FFDE168064B994204D02046B4
:101F9C00BDE8104000F086BD10BD00BFF803002066
:101FAC0060040020C804002010B50B4B0B4C0C4AED
:101FBC0020461A6004210022FFF794FF04F1680008
:101FCC0001220921FFF78EFF04F1D0000222BDE8A7
:101FDC0010401221FFF786BF30050020F8030020C7
:101FEC005D1F0008014800F00EB900BF3905002044
:101FFC00014800F009B900BF3905002010B50446AE
:10200C00FFF7F0FF236A1BB1BDE81040FFF7F0BFEC
:10201C00044B2362044B1B68002BF5D1FFF7C4FF64
:10202C00F2E700BF751F0008300500202DE9F843CA
:10203C000746884614460026D4E90195B9F10109F2
:10204C0005D52468002CF7D13046BDE8F883AB8960
:10205C00012B07D9B5F90E30013303D02946384688
:10206C00C04706436835E9E70FB407B5064904AB2A
:10207C00086853F8042B8168019300F0E3F903B06E
:10208C005DF804EB04B070476400002010B50C46FA
:10209C00B1F90E1000F068F80028ABBF636DA3898E
:1020AC001B1823F48053ACBF6365A38110BD2DE9CD
:1020BC00F0411F468B890546DB050C46164605D5B7
:1020CC0002230022B1F90E1000F03CF8A38932462D
:1020DC0023F48053A38128463B46B4F90E10BDE887
:1020EC00F04100F053B810B50C46B1F90E1000F0E9
:1020FC0029F8431CA38915BF606523F4805343F46E
:10210C008053A38118BFA38110BDB1F90E1000F04C
:10211C0009B803460244934200D1704703F8011BEF
:10212C00F9E7000038B50023054D044608462B603E
:10213C00FEF761FB431C02D12B6803B1236038BD51
:10214C003405002038B50446084611460022054DDA
:10215C002A601A46FEF773FB431C02D12B6803B1AD
:10216C00236038BD3405002038B5044608461146B6
:10217C000022054D2A601A46FEF704FB431C02D1CF
:10218C002B6803B1236038BD3405002038B50446F4
:10219C00084611460022054D2A601A46FEF70FFB31
:1021AC00431C02D12B6803B1236038BD34050020D9
:1021BC00014B1868704700BF6400002070B5002602
:1021CC000C4D0D4C641BA410A64209D100F0CAFDA5
:1021DC0000260A4D0A4C641BA410A64205D170BD02
:1021EC0055F8043B98470136EEE755F8043B984701
:1021FC000136F2E7F42D0008F42D0008F42D000848
:10220C00F82D0008704770477047000038B5054638
:10221C00002940D051F8043C0C1F002BB8BFE41827
:10222C0000F0DCF81C4A136833B96360146028466C
:10223C00BDE8384000F0D8B8A34208D9206821186E
:10224C008B4201BF19685B6809182160EDE71A46DB
:10225C005B680BB1A342FAD911685018A0420BD19C
:10226C0020680144501883421160E0D118685B6803
:10227C00084410605360DAE702D90C232B60D6E7D0
:10228C00206821188B4201BF19685B68091821600E
:10229C0063605460CBE738BD3C05002070B50E4E32
:1022AC000C463168054611B900F0BAFC3060214685
:1022BC00284600F0B5FC431C0AD0C41C24F00304CF
:1022CC00A04207D0211A284600F0AAFC013001D107
:1022DC004FF0FF34204670BD400500202DE9F84337
:1022EC00CD1C25F0030508350C2D38BF0C25002D11
:1022FC00074601DBA94205D90C2300263B6030467A
:10230C00BDE8F883DFF8D08000F068F8D8F800302A
:10231C001C465CBB29463846FFF7C0FF431C0446ED
:10232C0055D1D8F800402646002E45D1002C48D077
:10233C0023683146384604EB030900F071FC8145F3
:10234C003FD1216838466D1A2946FFF7A7FF0130A7
:10235C0037D023682B442360D8F80030002B38D0BA
:10236C005A68A2422BD100225A600FE02268521BFD
:10237C001FD40B2A17D96119A342256018BF5960C5
:10238C00636808BFC8F8001062514B60384604F10E
:10239C000B0600F029F826F00706231DF21AAED022
:1023AC009B1BA350ABE7A3426268DDD1C8F80020A9
:1023BC00ECE723466468ACE734467668B4E713462A
:1023CC00CCE70C2338463B6000F00EF897E725600D
:1023DC00DCE75B60FFDE00BF3C0500200148FFF737
:1023EC0012BF00BF380500200148FFF70DBF00BF2A
:1023FC0038050020936810B4013B002B936007DA7A
:10240C009469A34201DB0A2902D110BC00F072BB13
:10241C001368581C10601970084610BC7047F8B54A
:10242C0006460F461446D518AC4201D1002007E0F1
:10243C003A46304614F8011BFFF7DCFF431CF3D17E
:10244C00F8BD00002DE9F04F0D461446984606469F
:10245C009DB018B1036A0BB9FFF7D0FD6B6ED907AD
:10246C0005D4AB899A0502D4A86DFFF7CCFEAB89D5
:10247C001B0701D52B699BB92946304600F078FB28
:10248C0070B16B6EDC0704D54FF0FF301DB0BDE8AA
:10249C00F08FAB899805F7D4A86DFFF7B5FEF3E77D
:1024AC000023099320238DF8293030234FF00109A4
:1024BC00CDF80C80DFF8AC818DF82A3023469A4693
:1024CC0013F8012B0AB1252AF9D1BAEB040B0BD066
:1024DC005B46224629463046FFF7A1FF013000F04B
:1024EC00A980099A5A4409929AF80030002B00F0FE
:1024FC00A18000234FF0FF32CDE905230AF1010A38
:10250C00049307938DF853301A935446052214F80C
:10251C00011B544800F094FB049AD8B9D10644BF6F
:10252C0020238DF85330130744BF2B238DF85330E1
:10253C009AF800302A2B15D0544600204FF00A0C84
:10254C00079A214611F8013B303B092B4DD9B0B10C
:10255C00079214E0A0EB080309FA03F31343A24615
:10256C000493D2E7039B191D1B680391002BBBBF7F
:10257C005B4242F0020207930793B8BF04922378A0
:10258C002E2B0CD163782A2B34D1039B02341A1DC9
:10259C001B680392002BB8BF4FF0FF330593DFF895
:1025AC00C8A003225046217800F04AFB38B14022E3
:1025BC00049BA0EB0A00824013430134049314F8EB
:1025CC00011B062229488DF8281000F039FB002841
:1025DC003FD0274B1BBB039B073323F00703083368
:1025EC000393099B3B44099368E70C4601200CFBC1
:1025FC000232A6E700234FF00A0C1946013405936A
:10260C00204610F8012B303A092A03D9002BC6D0EA
:10261C000591C4E7044601230CFB0121F0E703AB51
:10262C0000932A463046134B04A9AFF300800746AB
:10263C00781CD6D16B6ED90705D4AB899A0502D418
:10264C00A86DFFF7E1FDAB895B063FF51DAF09985F
:10265C001CE703AB00932A463046064B04A900F056
:10266C007DF8E4E7BE2D0008C42D0008C82D000835
:10267C00000000002B2400082DE9F047164699466F
:10268C008A680B6907469342B8BF1346336091F8CA
:10269C0043200C46DDF820800AB1013333602368F7
:1026AC00990642BF336802333360256815F006057E
:1026BC0006D104F1190AE36832689B1AAB422BDC91
:1026CC0094F84320131E226818BF0123920630D4BD
:1026DC004946384604F14302C047013023D02368F1
:1026EC00226903F00603042B14BF002533684FF056
:1026FC00000608BFE56804F11A0408BFED1A54F887
:10270C00123C08BF25EAE5759342C4BF9B1AED182D
:10271C00B5421AD1002008E00123524649463846FA
:10272C00C047013003D14FF0FF30BDE8F0870135D1
:10273C00C1E73020E11881F843005A1C94F8451089
:10274C002244023382F84310C2E701232246494651
:10275C003846C0470130E6D00136D9E72DE9FF47AE
:10276C000F7E9146782F80460C469A460C9D01F1BF
:10277C00430207D8622F0AD8002F00F0D580582FBB
:10278C0000F0C18004F1420584F842703AE0A7F1F0
:10279C006303152BF6D801A151F823F0012800088A
:1027AC001528000891270008912700089127000898
:1027BC009127000815280008912700089127000888
:1027CC0091270008912700081B29000841280008C0
:1027DC00D528000891270008912700083D290008FA
:1027EC00912700084128000891270008912700082C
:1027FC00DD2800082B681A1D1B682A6004F14205AD
:10280C0084F842300123A0E020682B68070603F10E
:10281C000401296001D51E6803E04606FBD5B3F917
:10282C000060002E03DA2D23764284F843300A230D
:10283C00594812E02B682068191D2960050601D53E
:10284C001E6802E04106FBD51E886F2F0CBF0823C3
:10285C000A235148002184F843106568002DA8BF55
:10286C002168A560A4BF21F0040121600EB9002DE0
:10287C004BD01546B6FBF3F103FB1167C75D05F8AA
:10288C00017D3746BB420E46F4D9082B0BD1236889
:10289C00DE0708D5236961689942DEBF302305F84D
:1028AC00013C05F1FF35521B22614B462146404647
:1028BC00CDF800A003AAFFF7DFFE01304AD14FF09C
:1028CC00FF3004B0BDE8F087236843F02003236099
:1028DC007827324884F84570236829681F0651F818
:1028EC00046B02D45F0648BFB6B2DF0748BF43F0A3
:1028FC002003296048BF23601EB9236823F02003FE
:10290C0023601023A6E72448E4E71546BDE72B68AF
:10291C002668181D6169286035061B6801D5196089
:10292C0002E07006FBD51980002315462361BCE735
:10293C002B6800211A1D2A601D686268284600F069
:10294C007FF908B1401B606063682361002384F841
:10295C004330AAE72A46494640462369D04701300E
:10296C00ADD023689B0713D4E068039B9842B8BF93
:10297C001846A6E70123324649464046D047013067
:10298C009DD00135E36803995B1AAB42F2DCEBE7AF
:10299C00002504F11906F5E7CF2D0008E02D0008FD
:1029AC008A89F8B5054610070C4657D44B68002B9E
:1029BC0004DC0B6C002B01DC0020F8BDE66A002E59
:1029CC00FAD0002312F480522F68216A2B6032D087
:1029DC00606DA3895A0705D56368C01A636B0BB188
:1029EC00236CC01A00230246E66A2846216AB047C7
:1029FC00431CA38906D129681D292BD8284A0A41D2
:102A0C00D60727D4002262602269D904226004D53B
:102A1C00421C01D12B6803B96065616B2F600029E2
:102A2C00CAD004F14403994202D02846FFF7EEFBCA
:102A3C0000206063C1E701232846B047411CC8D180
:102A4C002B68002BC5D01D2B01D0162B01D12F606C
:102A5C00B2E7A38943F04003A381AEE70F69002FCF
:102A6C00AAD0930718BF00230E6808BF4B69F61B4A
:102A7C000F608B60002E9FDD33463A462846216A54
:102A8C00D4F828C0E047002806DCA3894FF0FF30BB
:102A9C0043F04003A38190E70744361AEAE700BFEE
:102AAC00FEFFBFDF38B50B6905460C4613B9002590
:102ABC00284638BD18B1036A0BB9FFF79FFAB4F971
:102ACC000C30002BF3D0626ED00704D4990502D4DD
:102ADC00A06DFFF798FB28462146FFF761FF636E58
:102AEC000546DA07E4D4A3899B05E1D4A06DFFF772
:102AFC008BFBDDE7F8B50E461446054618B1036AA4
:102B0C000BB9FFF77BFAA369A360A3891A0725D534
:102B1C0023691BB323682269F6B2981A6369374696
:102B2C00834204DC21462846FFF7BCFFE0B9A368CA
:102B3C00013BA36023685A1C22601E706269431C0F
:102B4C009A4204D0A389DB0706D50A2E04D121466C
:102B5C002846FFF7A7FF38B93846F8BD2146284666
:102B6C0000F006F80028D5D04FF0FF37F4E700004E
:102B7C0038B52A4B054618680C4618B1036A0BB9D0
:102B8C00FFF73CFAA389B4F90C20180722D4D90614
:102B9C0007D409232B6042F040034FF0FF30A38190
:102BAC0034E0580712D5616B41B104F144039942EA
:102BBC0002D02846FFF72AFB00236363A38923F086
:102BCC002403A3810023636023692360A38943F05A
:102BDC000803A38123694BB9A38903F42073B3F5CC
:102BEC00007F03D02146284600F05DF8A089B4F997
:102BFC000C2010F001030AD00023A36063695B4230
:102C0C00A361236943B910F08000C4D138BD81079A
:102C1C0058BF6369A360F4E70020F7E76400002065
:102C2C0038B50023054D044608462B60FDF714FE0D
:102C3C00431C02D12B6803B1236038BD340500203E
:102C4C00034610B5C9B202449342184601D1002084
:102C5C0003E0047801338C42F6D110BD70B50C46FC
:102C6C00B1F90E10154600291E4696B00CDAA38950
:102C7C00002113F0800F0CBF4FF480634023002021
:102C8C0031602B6016B070BD6A4600F049F8002820
:102C9C00EDDB019901F47041A1F500535942594102
:102CAC004FF48063EBE78B8973B59D0706460C46A2
:102CBC0007D504F14703236023610123636102B04C
:102CCC0070BD6A4601ABFFF7C9FF00990546304657
:102CDC00FFF704FB48B9B4F90C309A05EFD423F094
:102CEC00030343F00203A381E3E7A389206043F0CD
:102CFC008003A381009B20616361019B5BB1304623
:102D0C00B4F90E1000F01EF828B1A38923F00303C8
:102D1C0043F00103A381A3891D43A581CFE70000E4
:102D2C0038B50023064D0446084611462B60FDF7C6
:102D3C006DFD431C02D12B6803B1236038BD00BF6D
:102D4C003405002038B50023054D044608462B6099
:102D5C00FDF76BFD431C02D12B6803B1236038BD1A
:102D6C0034050020F8B500BFF8BC08BC9E4670477F
:0C2D7C00F8B500BFF8BC08BC9E467047CC
:102D880054696D657374616D703A202575206D7393
:102D98000A00000000000000000000000102030417
:102DA8000607080902030405060708090A0B0C0DA3
:102DB8000E0F10100102232D302B2000686C4C00E0
:102DC8006566674546470030313233343536373823
:102DD8003941424344454600303132333435363781
:0C2DE80038396162636465660000000019
:042DF40031010008A1
:042DF8000D010008C1
:102DFC000024F4001000000001000000000000009E
:102E0C0003000000F803002000000000F80300207D
:102E1C0060040020C8040020000000000000000036
:102E2C000000000000000000000000000000000096
:102E3C000000000000000000000000000000000086
:102E4C000000000000000000000000000000000076
:082E5C00000000001800002036
:04000005080008DD0A
:00000001FF
